:1000000000800020BD010000891900004119000096
:100010004119000041190000411900004119000078
:100020004119000041190000411900008919000020
:100030008919000041190000592E00005D2F0000B1
:100040008919000089190000891900008919000028
:100050008919000089190000891900008919000018
:100060008919000089190000891900008919000008
:1000700089190000891900008919000089190000F8
:1000800089190000891900008919000089190000E8
:1000900089190000891900008919000089190000D8
:1000A00089190000891900008919000089190000C8
:1000B00089190000891900008919000089190000B8
:1000C00089190000891900008919000089190000A8
:1000D0008919000089190000891900008919000098
:1000E0008919000089190000891900008919000088
:1000F00089190000992F000089190000C5300000FF
:1001000089190000F13100008919000089190000E7
:100110008919000089190000891900008919000057
:100120008919000089190000891900008919000047
:100130008919000089190000891900008919000037
:100140008919000089190000891900008919000027
:100150008919000089190000891900008919000017
:1001600089190000D51D00008919000089190000B7
:1001700089190000891900008919000089190000F7
:1001800089190000891900008919000089190000E7
:1001900089190000891900008919000089190000D7
:1001A00089190000891900008919000089190000C7
:1001B000891900008919000011110000564B4CF2FA
:1001C000205210B51A804DF628121A8000BF00BFC9
:1001D00001F0DEFB514B4FF010621A60504A9A60FA
:1001E000504ADA60504A136813F4807304D14F49BF
:1001F0000B604FF4A85313604D4B1A78110703D5C9
:100200001A7842F008021A704A4B4B492A221A7097
:100210004A4A4B4B8B4204D252F8040F43F8040B6A
:10022000F8E7484B484900228B4202D243F8042B9E
:10023000FAE74649464A002352F8230041F82300D2
:1002400001336F2BF8D1434B434A802103F8011B44
:100250009342FBD1414B3D4A1A60414B8A221A70AE
:10026000A3F5805324225A70A0221A709A7992071B
:10027000FCD59A79D406FCD43A4A937903F00C035E
:10028000082B384BF9D105221A7143225A719A79F9
:100290009006FCD5334A9179324B4906FBD5324A58
:1002A0004FF0817111600521516020221A709A79F6
:1002B00002F00C020C2AFAD12C4B2D4A1A602D4B5D
:1002C0002D4A1A6000225A60072243F8042C2B4A58
:1002D000C3F80C2D62B601F003FC144B1B68DA075F
:1002E00005D5274801F09AFB264B274A1A60274B71
:1002F0001B785B0609D5234C234B22689A4204D114
:100300001F4801F08BFB0023236004F087FD01F000
:1003100045FB01F00DFBFEE70E2005403080044058
:10032000823F04000100002B10D0034014D0034092
:1003300002D0074000E00740ECA6FF1F145B00005E
:10034000309CFF1FF0A6FF1F58ABFF1F0092FF1F3E
:100350000000000000E400E05FE400E008ED00E0E1
:1003600000500640004006404480044004800440A1
:10037000C010050014E000E03F190100000020203B
:10038000E605E45D1CE00340A5C3945A00F0074075
:10039000FFFFFFFFFFFFFFFFFFFFFFFFFFFFFFFF6D
:1003A000FFFFFFFFFFFFFFFFFFFFFFFFFFFFFFFF5D
:1003B000FFFFFFFFFFFFFFFFFFFFFFFFFFFFFFFF4D
:1003C000FFFFFFFFFFFFFFFFFFFFFFFFFFFFFFFF3D
:1003D000FFFFFFFFFFFFFFFFFFFFFFFFFFFFFFFF2D
:1003E000FFFFFFFFFFFFFFFFFFFFFFFFFFFFFFFF1D
:1003F000FFFFFFFFFFFFFFFFFFFFFFFFFFFFFFFF0D
:10040000FFFFFFFFFFFFFFFFFFFFFFFFDEF9FFFF23
:1004100010B5054C237833B9044B13B10448AFF33E
:1004200000800123237010BDF0A6FF1F0000000014
:10043000105B0000084B10B51BB108490848AFF32A
:1004400000800848036803B910BD074B002BFBD0A0
:10045000BDE81040184700BF00000000F4A6FF1FD1
:10046000105B0000ECA6FF1F0000000010B5044662
:1004700000F0F8FD204610BD002310B4104C41726E
:10048000026104600372C36041B1194600E0026971
:1004900042F82310427A01339A42F8DC094B1A6879
:1004A0000AB90BE01A465369002BFBD150610023B7
:1004B00043618380C380837210BC70471860F6E785
:1004C00078570000F0A7FF1F38B50C211148124CD7
:1004D00000F0C0FC114A4FF48033D2E900012362DE
:1004E00003F072FF0021054604F06AFA78B90C495E
:1004F000284604F083FA10B10A48E06138BD0A4981
:10050000284604F0BFF804F099FAE06138BD0020F5
:10051000E06138BD0082FF1F50A7FF1F389CFF1FFE
:10052000A655AC4680FFFF7F4B24BE47FFFFFFFF71
:100530002DE9F04F604D85B0D5E9000103F044FF8F
:100540000021044604F03CFA002840F0AB805B49EF
:10055000204604F053FA002878D15949204604F087
:1005600091F804F06BFA03465648DFF874A1C361B2
:1005700000F02CFC544C5548DFF850B100F072F9F3
:10058000DAF8003052492268086892FBF0F018440B
:100590008242B8BF3220CAF80000101A03F0DEFB16
:1005A00002F0DAFE80462068894603F0D7FB02F0AD
:1005B000D3FE064620680F4603F0D0FB3246CDE955
:1005C00002013B464046494603F07AFA02460B4692
:1005D000DDE9020103F028FC3246804689463B46AD
:1005E0000020002103F06CFA02460B4640464946C3
:1005F00003F044FD0023002203F064FADBF8283006
:10060000314EC5E900011BBBDAF80030012B44D0A4
:1006100025A3D3E90023D5E9000103F005FC064634
:1006200020680F4603F09AFB02460B4630463946D7
:1006300003F024FD1EA3D3E9002303F043FA03F0E3
:10064000A3FE05B0BDE8F04F01F0FAB9214B8BE7EE
:10065000022702460B4600971F4800F069FE012161
:100660001E4802F039FA306803F0B8FF06465846D3
:1006700000F026F90146304604F004F803F080FB50
:10068000009702460B46144800F052FE124800F054
:10069000FFFDDAF80030012BBAD14FF4967001F06B
:1006A000CFF9B5E700235FE700000000007072C0DB
:1006B0000000000000C07240389CFF1FA655AC46E9
:1006C0004B24BE4750A7FF1F349CFF1F20A7FF1FCE
:1006D000409CFF1F80FFFF7F4C9CFF1F7C5700004A
:1006E000A8A7FF1F2DE9F047DFF85C814F4DD8F830
:1006F0000020DFF86491C5F8009000236B722B6135
:100700002B72EB600AB98BE01A465369002BFBD1C0
:100710005561474E474B484F2B604FF0000A102061
:10072000C5F814A0A5F804A0A5F806A085F80AA0AD
:1007300000F07CF9524651463046FFF79DFE3F4B94
:100740003F4C336007F118024FF4804301213846D3
:100750003362FFF791FE00220023C7E9082301203E
:10076000384B3B6004F11802C7F828A053465146A5
:10077000C4F8009084F808A0C4F80CA0607222614C
:10078000A64601E0DEF8102042F82310627A2C48D9
:1007900001339A42F6DCD8F800202B4B0AB942E02C
:1007A0001A465369002BFBD15461DFF8B0A0274BE8
:1007B0002348DFF8AC9023604FF00008C4F81480A1
:1007C000A4F80480A4F8068084F80A8000F04AFAAD
:1007D00050468AF808808AE8A0008AF80980CAF89A
:1007E0000C808AF8108000F009FC194A194950461B
:1007F00002F0ACFD484689F80880C9F80060C9F8E5
:10080000044089F80980C9F80C8089F8108000F04C
:10081000F5FB48460E4A0F49BDE8F04702F096BD89
:10082000C8F8005075E71860BFE700BF90A7FF1F2A
:1008300050A7FF1F9457000020A7FF1FAC570000D0
:1008400074A7FF1F88570000F0A7FF1FA0570000E4
:10085000309CFF1F6D04000078570000ACA7FF1FFD
:100860000CA7FF1F2DE9F0410021804600F0BAFBE4
:10087000F8B1D8E90823011D00F5827E0F684E68A3
:100880008D68103151F8044CC7FBC723C6FBC62343
:10089000C5FBC523C4FBC4238E45EFD8D8F8281068
:1008A0000131C8E90823C8F82810BDE8F04100F07C
:1008B00055BBD8F828300133C8F82830BDE8F0819E
:1008C000F8B572B6002600270023D0E90845826AF1
:1008D0008362C0E9086762B6D2012046294604F067
:1008E000CDF803F091FE02F0B7FD024903F07EFF60
:1008F000F8BD00BF00FEFF46164A174B11681748A7
:10090000096912790270994209D2154A1278F2B136
:10091000144A4FF08041116003F1800001E0184655
:10092000803B114A12688AB110B4104C21884029CA
:1009300028BF402102EB410240312180023233F8CE
:10094000021B22F8021F9842F9D810BC704703F12D
:100950008000E6E7D0A7FF1FB08EFF1F1F8000407A
:10096000D8A7FF1F08E200E0CCA7FF1FC4A7FF1F06
:100970002DE9F041054600F09DFA024672B6234B80
:1009800019887F290AD8002837D0214C21680029EE
:1009900036D062B6BDE8F04100F0E0BA1C49002054
:1009A0000E6818800A6062B6DFF86CE0194FDEF856
:1009B00000303C68DFF864C0311D06F582780A8893
:1009C0001B1B9203D01880FB0C344FEA840444EACA
:1009D000937323F38F3021F8020B88451446EED829
:1009E000284631460022CEF800303C6000F0E0FAA4
:1009F0003046BDE8F04100F0B1BA62B6BDE8F08122
:100A00002060198062B6BDE8F08100BFC4A7FF1F57
:100A1000CCA7FF1FC8A7FF1FC0A7FF1F00B0FB3F49
:100A200010B5044600F01AFC204610BDF8B5044687
:100A3000102000F08DFE022000F064FE042000F083
:100A4000BBFE204600F0F6FE3F4B404C4049414A79
:100A50008003034000202360086013685B0208D510
:100A60003D4B1A6848F6A273134048F6A2729342AF
:100A700058D03849384A0B68384F394D39483A4CC4
:100A800043F480030B604FF0010E40F22F3648F61E
:100A9000A37140F20113C7F800E02E6011601460EA
:100AA0000360324A324C136843F04403136020461B
:100AB000012100F06FFB23682E4A1A600021998003
:100AC00022792D48186102F1804202F5043240F289
:100AD00001106FF0FF06D8809E6180250220062756
:100AE000A826DD82D960DD8398609F83988211708B
:100AF000167000F0F5FA2279204B214E1870531130
:100B00009B0003F160431F4C327003F5614302F117
:100B1000100002F01F0701211B4D44F82050B9407E
:100B20001960F8BD0E4B1A6840F22F339A42A0D1DB
:100B30000A4B1B68012B9CD10A4B1A6840F2011327
:100B40009A4296D1ADE700BF00C0FF3FC8A7FF1F84
:100B5000C0A7FF1F3C800440006003400C600340BE
:100B60000460034010600340A28F010020B00340E6
:100B7000D0A7FF1F10B00340308EFF1FD8A7FF1F64
:100B80001B8000400092FF1FF9080000024A034941
:100B9000034802F0DBBB00BF309CFF1F210A0000AE
:100BA000D0A7FF1F10B5002100F01CFA70B172B67B
:100BB0000A4B1A6872B10A490C6844B11C6008609B
:100BC00062B61046BDE8104000F0C8B910BD08601C
:100BD00062B610BD186062B610BD00BFECA7FF1F63
:100BE000DCA7FF1F38B5184B18491A68184C126853
:100BF0001B79184D0B70A242286836BF2246A4F517
:100C0000807202F58074C0B1011D31F9023B03F519
:100C100000431B1122F8023B9442F6D800F09EF9E3
:100C20000D4B0022196829601A600C4B1B781BB110
:100C30000B4B4FF080421A6038BD4FF4006322F82E
:100C4000023B9442FBD8F0E7E0A7FF1F1F80004063
:100C50003090FF1FECA7FF1FDCA7FF1FE8A7FF1FB7
:100C600008E200E0F8B501214248434E00F092FA54
:100C7000424A43491368802043F4805313600024A0
:100C8000087040F6080534800120083400F0D8FED2
:100C9000A3B2AB421CB2F6D13A4B1B685B0208D53B
:100CA000394B1A6848F6A273134048F6A272934271
:100CB0004FD03449344A0B68344F354D3548364CA3
:100CC00043F480030B604FF0010E40F22F3648F6DC
:100CD000A37140F20113C7F800E02E6011601460A8
:100CE0000360244C2D4A236823491A6002259D8005
:100CF0002279196102F1804202F50432284EDE6049
:100D000040F20111D9804FF4807000210627B026EF
:100D1000D8829D60D88399829F83996111701670E3
:100D200000F0DEF922791F4B1F4E187053119B0003
:100D300003F160431D4C327003F5614302F1100072
:100D400002F01F0701211A4D44F82050B9401960E4
:100D5000F8BD0F4B1A6840F22F339A42A9D10B4BC2
:100D60001B68012BA5D10B4B1A6840F201139A4264
:100D70009FD1B6E7E0A7FF1F00C00C402C800440C5
:100D800021C00C403C800440006003400C600340E4
:100D90000460034010600340A28F0100308FFF1FEA
:100DA00000FEFFFFE8A7FF1F1B8000400092FF1F0F
:100DB000E50B0000024A0349034802F0C7BA00BF2E
:100DC000309CFF1F210A0000E0A7FF1F036A2DE9E6
:100DD000F04780464BB9D8F81830D8F81C2003EB00
:100DE000C213C8F81830BDE8F08700F063F8064673
:100DF0000028F0D0D8F81890D8F81C70D8F820C087
:100E0000134D4946841C00F5817E0B0E5A1C35F9A2
:100E1000130035F91220C1F30F2ACAF5803300FB05
:100E200003F30AFB023353FB0CF324F8023FA645FD
:100E30003944EAD109EBC7174046C8F81870314663
:100E4000002200F0B5F83046BDE8F04700F086B863
:100E5000B0570000C029F0B428BFC02172B6124BB1
:100E6000124E134A18600023138033607360B3601E
:100E7000F36033617361012799B15D0903F01F04C9
:100E800056F8252007FA04F4013322438B4246F832
:100E90002520F2D10023438001338B4200F582707C
:100EA000F9D162B6F0BC7047F8A7FF1F00A8FF1F7A
:100EB0001AA8FF1FF0B472B6234F244E3C8806F1E7
:100EC000180306EB8400984212D256F8241099B900
:100ED000021D06F11B05631CAD1A03EB950503E02B
:100EE00052F8041B41B90133AB421C461046F7D1FE
:100EF00062B60020F0BC7047B1FA81F34FF00042B7
:100F0000DA4021EA0201016001B9013410493C8054
:100F10000A88013294B20C8062B6801B8010C3EB49
:100F2000401000EB801083000A480B49006803F56D
:100F3000FB531C330125C5540D88AA42184488BFB1
:100F40000C80F0BC704700BF1AA8FF1F00A8FF1F4D
:100F50001CA8FF1FF8A7FF1FF4A7FF1F428872B647
:100F60000378012B03D9013B037062B6704753111C
:100F700070B40C4C0C4D54F823102E88D2434FF013
:100F8000004002F01F0220FA02F21143074A44F81F
:100F90002310B34238BF2B801388013B138062B605
:100FA00070BC704700A8FF1F1AA8FF1F1CA8FF1FD6
:100FB000C368B3B130B401E0DB688BB1187A9042FA
:100FC000FAD158685C7A006950F82450002DF3D1AA
:100FD00040F82410087801300870DB68002BEDD150
:100FE00030BC7047437A8B4206D90369002253F81C
:100FF000210043F82120704700207047037C23BB69
:101000004368427A5B7A9A421FD830B472B6046859
:10101000E3682BB3DA6832B119688C4216D01346F4
:10102000DA68002AF8D1D8600023C360A37A0133BC
:10103000A37202684168012313728A7A1A448A7281
:1010400042681372037462B630BC70475D684168D1
:101050008D42E4D1198903899942F4D01346DFE720
:10106000E060E1E7037C10B5002B32D04368427AA0
:101070005B7A9A422DD872B60268D36843B398421D
:1010800002D129E0984202D0DB68002BFAD14368F4
:10109000417A1B69044653F8210048B1FFF75EFF0F
:1010A00072B66368627A1B69002143F822102268D5
:1010B000937A013B937223689A7A02B91A72626832
:1010C000937A013B937263689A7A1AB1002323746E
:1010D00062B610BD1A72F9E7C368D360D7E700BFE4
:1010E000084B1A7862B930B407480849D025057012
:1010F0004FF0804401220C6010461A7030BC7047DB
:1011000000207047FCA7FF1F5EE400E008E100E05C
:101110001A491B4A1B48F8B50B681B4D046843F07D
:1011200080730B60136843F0010313602E6814B9D9
:1011300015E064699CB1237A002BFAD023682F68EC
:101140001B68204698472B68E188DB1B1B099AB275
:101150008B42A28088BFE2806469002CEBD10A4BED
:101160000A4A1B6810880A4C9B1B1B0999B28342D0
:10117000218001D91180F8BDF8BD00BFFCED00E071
:10118000001000E0F0A7FF1F041000E018A8FF1FE8
:101190001EA8FF1FF0B572B699B902688AB103792B
:1011A0000F2B0ED8274C218841FA03F5ED070AD5FD
:1011B00003F1007303F59063B2EB431F03D162B6F2
:1011C000F0BD204C2188002341FA03F212F0010205
:1011D00007D00133102BF7D162B6002203710260F1
:1011E000F0BD01259D402943218062B6164E174D62
:1011F000174FDFF864E0D9B20171346844F002049B
:1012000034602C6844F002042C60A6F58026822409
:10121000A5F5802503F100733C6003F59063223E41
:10122000243D0C4C8EF800105B0131702970217048
:1012300003601A605A609A60DA601A615A619A61B2
:10124000DA61F0BD20A8FF1F408004403C800440CC
:10125000008000401F8000401A80004003790F2B5F
:1012600011D8094A10B4137072B6084904790A8873
:101270000123A34022EA03030B8062B6102200235D
:1012800010BC0271036070471A80004020A8FF1F45
:1012900000B5064A036812885B6883B001A9ADF8FF
:1012A00004200222984703B05DF804FBB459000003
:1012B000F0B507468BB0002A33D0012A08BF0A22B6
:1012C00051B3212400E0F4B2B1FBF2F502FB151199
:1012D000C8B2092900F1300198BFC8B20AA988BF75
:1012E0003730214488BFC0B201F8240C661E29465D
:1012F000002DE8D133B1013CE4B20AAB23442D22E6
:1013000003F8242C3B6801AA11195B683846C4F124
:10131000220298470BB0F0BD30228DF82520212401
:10132000E8E70368C9B21B6898470BB0F0BD00BF7F
:101330002DE9F04385B080461946104616461F46F3
:101340009DF8305003F00AF8002840F0B18027F0F3
:101350000044304621464FF0FF32594B02F0FEFF69
:1013600098B9304621464FF0FF32554B02F0D8FF76
:1013700058B9D8F8003053495B6840460322984773
:101380008146484605B0BDE8F083304639464FF007
:1013900060424D4B02F0D8FF002870D130463946EC
:1013A0004FF06042494B02F0B1FF002867D1304650
:1013B00039460022002302F0A9FF002863D18146AC
:1013C000002D65D0424B00240022104619463AA356
:1013D000D3E9002302F028FD01340B46E1B28D422F
:1013E0000246F2D83046394602F06CFB0F460646FC
:1013F00002F0CAFF044602F0A1FC02460B4630464A
:10140000394602F05DFB4B4606460F460A2221464E
:101410004046FFF74DFF0F2D28BF0F2501352E2326
:101420008146EDB28DF8003001240022294B304670
:10143000394602F0F9FC0F46064602F0A5FF04AB60
:101440002344C0B200F1300203F8102C02F086FCF5
:1014500002460B463046394602F032FB0134E4B214
:10146000AC4206460F46E0D1D8F8003022465B6811
:10147000404669469847484605B0BDE8F083D8F82D
:101480000030154978E707F100474FF0010997E769
:1014900000220F4B3046394602F014FB02F074FF75
:1014A0004B4601460A224046FFF702FF814668E7A5
:1014B000D8F8003009495FE7000000A09999B93FCA
:1014C000FFFFEF7FC0590000FFFFEF41FFFFEFC1BB
:1014D0000000E03F00002440BC590000B859000063
:1014E000374A384913681B06FCD40B6813F0800395
:1014F000F8D172B634490A78002A5FD0334A3448AA
:10150000F0B4344C176806682568D4680C303E4443
:10151000143200681268304F35442C442044024491
:10152000C2F34E022D4E2E482E4D2F4C42F4004257
:101530003A60376806682D682C4A24680C303E44AF
:10154000006812682A4F35442C4420440244C2F3F8
:101550004E02284E2848294D294C42F400423A6058
:10156000376806682D68274A24680C303E440068B6
:101570001268254F35442C4420440244C2F34E02E5
:10158000224E2348234D244C42F400423A603768EF
:1015900006682D68214A24680C303E4400681268B1
:1015A00035442C4420440244C2F34E021C4842F409
:1015B000004202600B7062B6F0BC704762B67047C2
:1015C00024B0034024B00B4023A8FF1F38B00340D1
:1015D0003CB0034040B003402CB0034058B003403F
:1015E0005CB0034060B0034064B003406CB00340A3
:1015F00030B0034038B00B403CB00B4040B00B4023
:1016000044B00B404CB00B402CB00B4058B00B40DA
:101610005CB00B4060B00B4064B00B406CB00B4052
:1016200030B00B4030B42948294A2A4B2A4D602457
:10163000E121047011701B78284C082B30D00A2B44
:101640002748284937D00C2B0CBF15223D221223E6
:101650002A60236002600B60234B24491B78244AD4
:10166000BBB101230B601360224B23491B78234A33
:10167000012B26D9042B0FD9082B1ED9102B94BF70
:10168000862387230B6013601D4B01221A7030BC28
:1016900070470B601360E7E784230B601360F3E788
:1016A00000F58E200F490830012213232A602360A1
:1016B00002600B60D0E71922F7E785230B60136007
:1016C000E2E780230B601360DEE700BF00400740C5
:1016D00001400740449CFF1F08B003400CB003408A
:1016E00008B00B400CB00B4026A8FF1F20B00340F1
:1016F00020B00B40459CFF1F24B0034024B00B409A
:1017000023A8FF1F68B10E4A1378C3B90D490978A1
:101710000120107019B10C490C4A0B601360FFF7DF
:1017200081BF074B1A7852B1064A18701378002B04
:10173000F5D0054A054B10601860FFF773BF70477E
:1017400026A8FF1F23A8FF1F24B0034024B00B408E
:101750000C2830B417D91023984228BF18461C46CD
:10176000104A114D1178181A8C42287018D00F4960
:1017700013700B7823B10E490E4A00230B601360DF
:1017800030BCFFF74FBF0A2802D90C231C46E7E7FD
:10179000082802D90A231C46E2E708231C46DFE793
:1017A00030BC7047449CFF1F22A8FF1F23A8FF1FC7
:1017B00024B0034024B00B4010B51A4B1B780446EC
:1017C000BBB9012C19D9042C174B18490AD9082C7C
:1017D00020D9102C17D907221A600A60144A202336
:1017E000137010BD04221A6013460A60104A137069
:1017F00010BDFFF775FE012CE5D80B4A00231360DE
:101800000B4A137010BD06221A600A60084A1023A2
:10181000137010BD05221A600A60054A0823137070
:1018200010BD00BF23A8FF1F24B0034024B00B400D
:10183000459CFF1F28282FD8334B2DE9F0411E5C13
:10184000FF2E2BD0314B1B78002B2AD132062CD403
:1018500072B62F4D2F4C2F46012326602B7062B697
:1018600072B623681B060CD43B781BB9F4E72B78BF
:10187000002BF1D062B601F033FA72B62368180675
:10188000F5D5254B1B6800222A7062B6234A1078D2
:1018900043FA00F0BDE8F081002070470020BDE869
:1018A000F081FFF71DFE3206D2D572B61C4DDFF86F
:1018B0007C801C4C06F04007FFB206F03F06D8F8CB
:1018C0000030DFB123F01003C8F800300123266098
:1018D000134A2B7062B672B6236819060CD41378BB
:1018E0001BB9ECE72B78002BE9D062B601F0F8F9D0
:1018F00072B623681B06F5D50B4BC3E743F0100304
:10190000C8F80030E2E700BFC459000023A8FF1F59
:1019100025A8FF1F00B0034010B0034022A8FF1FFE
:1019200024A8FF1F00B00B4010B00B400CB00B40C0
:1019300008B5FEF7C9FDFEF7FBFD01F0D1F9FAE7A6
:1019400008B5104C08E0236859050DD423681A0522
:101950000FD42368DB0411D423685803F3D500F0B7
:1019600039FA23685905F1D501F016FB23681A05E9
:10197000EFD501F0A7FB2368DB04EDD501F038FCBF
:10198000EAE700BF3480044008B5FFF7D9FF00BF85
:10199000014B10221A80704700200540704700BF9D
:1019A000094908B50B6830B16A461844A2F580525F
:1019B000904202D20860184608BD03F029FA0C23B1
:1019C00003604FF0FF3008BD489CFF1FFEE700BFDB
:1019D000F0B44D1E2E46002400E00134B0FBF2F3BB
:1019E00002FB1300092800F130078ABF3730F8B234
:1019F000C0B206F8010F1846002BEED10A19537039
:101A00004CB1107815F8016F28700133E01A834249
:101A100002F80169F5DB0846F0BC704730B4054BAD
:101A2000054D064C002210211A602A6020601960C2
:101A300030BC704714D0034004D0034000D00340B2
:101A40002DE9F843054672B6214F224B224A1B6806
:101A50003C68126862B6520102D5322B88BF01344D
:101A6000A5B3C3F58C331D4EDFF86890DFF86880AE
:101A700003F23F134FF47A72A6FB031302FB04F444
:101A800004EB131472B6D9F800103A68D8F800E0E5
:101A900062B6C1F58C3303F23F13A6FB03031EF0BD
:101AA000806FC4EB13134FF47A7002D0322988BFD1
:101AB000013200FB0233B3F57A7F04D3013D05D038
:101AC00004F57A74DEE701F00BF9DBE7BDE8F88393
:101AD00028A8FF1F18E000E004ED00E0398EE3388D
:101AE000F8B52D4B2D49DFF8D0E0DFF8D0C02C4EF3
:101AF0002C4D2D4C2D4A2E4F4FF4000018604FF006
:101B0000807018604FF0007018604FF080601860AF
:101B10004FF00060186000200860282348F6FF712D
:101B2000CCF80010CEF80030336013602B602360D7
:101B30003B60B3629362092245F8242CC4F8D80FA5
:101B400005F57F65C7F8D41F07F5FF2707F5FA6786
:101B5000C6F8F83F2B6006F5FF26C4F8D42F05F52C
:101B6000FD2504F5FF24386006F2F4761148316053
:101B700005F5FF6504F5FD642B6023600260FFF747
:101B800051FD1920FFF75CFF00F088FE40F21310B2
:101B9000BDE8F840FFF754BF08E100E004800340CF
:101BA00014800340248003402C8003401C800340A9
:101BB0003480034000800B400C80034008800340C9
:101BC000431E062B14D872B60A4951F8230068B197
:101BD00070B4094C058834F81320466841F8236036
:101BE000521B24F8132062B670BC704762B670476F
:101BF0000020704790A8FF1F38ABFF1F0138062850
:101C00000BD872B6074B53F8203043B100205B6805
:101C10000130002BFBD162B6704700207047184698
:101C2000F9E700BFF0A8FF1F30B472B6434A13783B
:101C30001C0706D5424B196A00295BD0996A002916
:101C400066D05378190706D53D4B196C002969D029
:101C5000996C00295ED093781B0706D5384B196E16
:101C6000002963D0996E002956D0D3781D0708D576
:101C7000334BD3F88010002956D0D3F888100029B0
:101C80004CD013791C0708D52D4BD3F8A010002990
:101C90004ED0D3F8A810002942D05379190707D5A0
:101CA000274BD3F8C010002944D0D3F8C81091B105
:101CB00093791B0708D5224BD3F8E020002A3BD0AC
:101CC000D3F8E8201D243AB162B61E4B00221A70E8
:101CD00030BC00F075BE19241A491B4D0A7843F830
:101CE000345003EBC4030830013A58600A7062B6FE
:101CF00030BC70470422134C144D217843F8325005
:101D000003EBC20308304A1E5860227062B6EFE748
:101D10000524E1E70924DFE70D24DDE71124DBE7F3
:101D20001524D9E70822E6E71022E4E70C22E2E7CF
:101D30001422E0E71822DEE71C22DCE7185A000034
:101D40000080FF1F31A9FF1FC8004000880040002D
:101D5000431E062B1DD81B4A400140F0100030B432
:101D6000104472B6184CE25C032A1BD8DFE802F07C
:101D70000212151703220D88E25410F0080F14BF49
:101D8000C823882343EA054308310360416062B6F3
:101D900030BC704708300222EDE70522EBE708303F
:101DA0000422E8E7094A52F8230038B1084A52F8F9
:101DB0002300416042F8231062B6E9E742F823109D
:101DC000034AF7E70080FF1F40A9FF1FF0A8FF1F8D
:101DD0000CA9FF1F2DE9F04FDFF818B3DFF818A3A7
:101DE00087B044E0AE4F4FEA930807EBC809013CC7
:101DF000D9F8042003F00803E4B2A2F1080003F0CC
:101E0000FF05002B40F00A8157F838301B0C99B2BF
:101E100022F8081C002B00F0F880A24B22F8065C88
:101E200042F8045C53F82420002A00F01E829E4EE3
:101E300056F8243058609D4D46F8240035F814308B
:101E4000194425F8141000F09BFD002800F01182C1
:101E5000974A984B19F0080F00F1080018BF134675
:101E6000C9F8040047F8383008238BF800309BF895
:101E70000040E4B265071AD58F4B1B78A3B18F4998
:101E80000A7802F0FF0322B1013BDBB20B7003B909
:101E900000BE8B490A7802F0FF032AB1013BDBB296
:101EA0000B70002B00F0B78104238BF8003004F096
:101EB000080303F0FF02002B00F0D4809AF80030F2
:101EC000DBB21C098ED19B08754C54F8332004EB0F
:101ED000C301C2F38302013A49680C2A00F29180DF
:101EE000DFE802F07F7F8F8F8F8F8F8F468F8F8FEE
:101EF00007000868734E744A01924A686C4944F8B6
:101F00003310724F726040F2816382B26E4930606A
:101F100000254FF001099A420D602561A56187F8FF
:101F2000009000F2F080B2F5D06F80F05D82B2F5E3
:101F3000817F00F0488200F2FC81802A00F0C98293
:101F4000822A40F0F281B38803F07F03072B00F26E
:101F5000EC815F4A5F489B001A4405704570137816
:101F60009D0740F1328480F800904FF00209E1E0D3
:101F7000554B01931B684BB3DFF880E1534F564A32
:101F8000BEF800103878157840290E4645F0020C4E
:101F900028BF4026002880F001003870A1EB060120
:101FA0000CBF8820C82004EBCC0789B285F001055E
:101FB00040EA06407B60AEF8001044F83C00334431
:101FC0001570002900F00481019A13603D4B1A88B6
:101FD000B2F5A06F15D100219A7859703F4B1A7055
:101FE0000FE0384E308842F22102904200F05881D2
:101FF00030683B4A334D904200F0EE802C4A44F862
:102000003320384A012313702EE7294A294B19F04F
:10201000080F18BF134647F8383025E700F0D0FC0A
:10202000314A324952F82430002B00F02981586897
:102030000D5D42F8240003F10802C9F80420032DC5
:1020400005D8DFE805F05D02292602220A551A8824
:1020500019F0080F0CBF8823C82343EA024347F84E
:10206000383001E7E00700F1D980210600F1448112
:10207000A20706D51E4A1F4913780220DBB213704F
:102080000870E30602D51B4B10221A7007B0BDE89A
:10209000F08F04220A55DAE705220A55D7E700BF78
:1020A0000080FF1F90A8FF1F30A8FF1F38ABFF1F45
:1020B000C8004000880040003CA9FF1FADA8FF1FDA
:1020C00048A9FF1F28A9FF1F2CA8FF1FACA8FF1FAE
:1020D000C020074034A9FF1F30A9FF1F98200740E8
:1020E0002109000294200740F0A8FF1F40A9FF1F0C
:1020F0008820074080200740902007404CA8FF1F01
:1021000003220A55A3E740F621239A4200F0CB812F
:1021100000F2FC80B2F5106F00F0AF8140F62113A1
:102120009A4251D0B2F5086F40F0FF80B24BB348ED
:102130001B780370F188494580F09A83B04A15787E
:1021400045F0020604EBC60340298E46586028BFBE
:102150004FF0400E002300EB0E08CEEB01014FEADA
:102160000E4C02934FF00109C8204CEA000C9DF878
:10217000083044F836C085F001003B701070A14E65
:10218000DFF87CC2002940F0F480BEF1400F1BD183
:1021900040F0020004EBC004029BC4F80480994E96
:1021A0000C04002B40F0FC8044F0880446F83040DA
:1021B00087F80090157008EB0103402904D1002135
:1021C000914A019811800360904A0123137018E727
:1021D000402E18BF0023F7E668688D4A90427FF4CE
:1021E0000DAF874A8B4F10783D788B4E0978317050
:1021F000002D40F0020180F0010616700CBF88220D
:10220000C82244F8312004EBC10185F00105002209
:102210003D704A60F2E600F03FFD45E6794B7B48B1
:1022200077491A614FF0020E80F800E07B4F0A7088
:102230007B49196099607B4E7B4D7C4C9A610D21E6
:102240003970FF213170DFF808E229702270784D73
:10225000784A8EF800109F27012406F8047C5D6000
:102260000470DA6007B0BDE8F08F43F82400724EC6
:10227000E1E5724A47F83800137801331370F3E54B
:102280000B5D032B00F2988001A252F823F000BFEF
:10229000691E0000691E00005F2300006523000026
:1022A000674A0D784878157050708D78C8789570A9
:1022B000D0700D79106815714D79557186288D791A
:1022C000957101F1070150D04D4A524F10783D7879
:1022D00080F0010E002D40F0020082F800E00CBFFB
:1022E0008822C82244F8302004EBC00085F00105A4
:1022F00000223D7042607BE648494B4B80220D2016
:1023000008701A70A2077FF5BCAEB3E642F2212333
:102310009A4200F0E48042F221339A4200F0C380F6
:1023200042F221039A423FF44FAF3C4A0F2313700D
:102330004AE740F202339A4240F0B180B28802F09C
:102340007F02072AF1D87388002BEED1334902931C
:10235000920011440A7842F002020A70A7E00023BA
:102360000B5581E501230B557EE5364A0F20107091
:10237000AAE740297FF60CAF40F0020006EBC0024E
:10238000029BC2F80480ABB12F4A224B8CF800505C
:1023900083F80090403908F1400346F830200FE7F9
:1023A00044F0C80487F80090157008EB010346F864
:1023B000304002E71A4AE8E719F0080F0CBF022381
:1023C00003230B5550E5B28802F07F02072AACD8F0
:1023D0007388002BA9D111490293920011440A7805
:1023E00022F002020A7062E0184B586800289CD064
:1023F0007188B58833E000BF3CA9FF1F34A9FF1FD7
:1024000030A9FF1F0080FF1F4CA8FF1F942007402A
:1024100002000100ACA8FF1F47A9FF1FC020074012
:10242000880040008820074080200740982007400F
:1024300050A8FF1FB0A8FF1F30A8FF1F31A9FF1F22
:1024400048ABFF1FADA8FF1FC8004000205A000086
:102450008C2007400C33586800283FF466AF1A8878
:102460008A42F7D15A88AA42F4D1090A03290CBF3B
:1024700090F80090B3F808905CE6B24BB24DB27899
:102480001A7005F1E00602E00835AE4230D02B6A42
:102490001806F9D5686A083800F092FAF4E7B2F540
:1024A000A06F7FF442AF002302934FF00109002197
:1024B00088468C468E460846A44A157845F00206A2
:1024C00004EBC603B9F1000F58600CBF8820C82088
:1024D0004BE69F484FF00209057045702AE69D487B
:1024E0009D4B9E4A0068B178186002951170DEE736
:1024F0009B4B9C4A9C499D4E9D4D9E48039604953E
:102500004FF000090290884605971E461546306830
:1025100028B1476800F054FA3846002FF9D100235B
:102520003360039B28681A46002342F8293028B1FB
:10253000476800F045FA3846002FF9D1029B002287
:102540001B782A6048F8042F049A4FF00001023BE0
:1025500022F81910032B07D8DFE803F06D026D0293
:10256000029B4FF001021A70029B09F1010901332D
:10257000B9F1070F06F1040605F104050293C6D16F
:102580007D4D7E4E2B78059F002232707C4A1907C4
:10259000137000F1C4807B4A6B78137000222263B1
:1025A000A2631A07DFF8A08176D4AB78764ADFF809
:1025B0009881137000221B072265A26557D4EB781F
:1025C000724ADFF88481137018074FF00002226707
:1025D000A26700F18D802B796D4ADFF86C81137052
:1025E00019074FF00002C4F89020C4F8982068D46E
:1025F000684A6B7913700022C4F8B020C4F8B82080
:102600001A07DFF8448100F1CD80AB79624A4E4D64
:10261000137000221B07C4F8D020C4F8D8200FD4B0
:1026200097F80090002289F001030293C4F8F0208B
:10263000C4F8F8203BE7029B4FF000021A7093E7C2
:1026400000F09EF9002800F0EC800830534BC5F8EC
:10265000E400C5F8E03000F093F9002800F0DB80DA
:1026600008304F4BC4F8EC00C4F8E830D8E700F06D
:1026700087F9002800F0B1800830484BC8F86400A2
:10268000C8F8603000F07CF9002800F0A180083024
:10269000434BE066A36692E700F072F9002800F071
:1026A000D78008303D4BC8F84400C8F8403000F0EF
:1026B00067F9002800F0C7800830394BE064A36454
:1026C00073E700F05DF9002800F093800830334B89
:1026D000C8F8A400C8F8A03000F052F9002800F0B3
:1026E000828008302E4BC4F8AC00C4F8A8307FE7D5
:1026F00000F046F9002800F0A0800830274BC8F809
:102700008400C8F8803000F03BF9002800F08F808A
:102710000830234BC4F88C00C4F888305BE700F025
:102720002FF9002800F09F8008301C4B6062236264
:1027300000F026F9002800F091800830184BE06284
:10274000A36228E73CA9FF1F0080FF1F30A9FF1FDD
:1027500034A9FF1F28A8FF1F50ABFF1F58A9FF1F58
:1027600090A8FF1FF0A8FF1F08A9FF1F30A8FF1F98
:1027700038ABFF1F40A9FF1F185A000031A9FF1FE7
:10278000C4200740C8200740CC200740D020074085
:10279000D4200740D8200740DC20074088004000B4
:1027A000C800400000F0ECF878B30830394BC8F8A6
:1027B000C400C8F8C03000F0E3F800B30830364B6E
:1027C000C4F8CC00C4F8C8301FE74FF00209B1E4E8
:1027D0003378A06601333370F1E63378C8F86000CF
:1027E000013333704EE73378C4F8A80001333370F7
:1027F000FEE63378C8F8A000013333706CE7337815
:10280000C4F8C80001333370FFE63378C8F8C0005D
:1028100001333370CFE73378C4F8E8000133337005
:10282000FEE63378C5F8E0000133337013E7337800
:10283000C4F8880001333370CDE63378C8F88000DF
:10284000013333705FE73378A06401333370ACE653
:102850003378C8F840000133337028E73378A0623A
:102860000133337097E633782062013333705FE7CA
:10287000B9F1400FCE464FF0000328BF4FF0400E95
:10288000CEEB09014FEA0E4C00EB0E0802934FF01D
:10289000010911E688004000C80040002DE9F84316
:1028A000204C00F011FD002204F1E80023461A60DC
:1028B0005A60083383424FF00001F8D11A4A1B4F87
:1028C00013681B4D1B481C4EDFF87880DFF878C07A
:1028D000DFF87890DFF878E043F480231360C4F3E6
:1028E00007233B70C4F307432B70240EFF2302F52C
:1028F00028320470114D88F8003011488CF80030EF
:10290000D4323370012389F8003070268EF800101D
:102910004FF40074102107F8183C2E7004601170F9
:10292000BDE8F8830080FF1F348004409C200740EE
:10293000B0200740B42007401020074049E400E0E1
:1029400008E100E0802007408820074094200740ED
:102950000021074000F0A4B800F07CB800F056B8A1
:1029600000F090B800F06CB900F046B90846114686
:1029700000F0B2B8084600F033B900BF704700BF9E
:1029800072B60D480268B2FA82F31D2B10DC4FF0CC
:102990000041D94022EA0102026062B6074803EB17
:1029A000C303DB00C2180021C150104651607047BC
:1029B00062B60020704700BF5C9CFF1FBC93FF1FE6
:1029C0000D4B0E4AC31AA2FB03231B091D2B0CD867
:1029D0000B4A127852B972B60A484FF000410268A9
:1029E00021FA03F31A43026062B67047064A12786E
:1029F000002AF0D0FFF718B9BC93FF1F398EE338D7
:102A000031A9FF1F5C9CFF1F3CA9FF1F38B50F4D6C
:102A1000286878B143880288C118013393420C7A40
:102A200002D24380204638BDFFF7CAFF002320466C
:102A30002B6038BD064B1B782BB10320FFF7C0F885
:102A400028600028E6D14FF0FF3038BD54A9FF1FA1
:102A50003CA9FF1F10B5094C206818B143881844E1
:102A6000007A10BD064B1B782BB10320FFF7A8F8A6
:102A700020600028F2D14FF0FF3010BD54A9FF1F95
:102A80003CA9FF1F044B054A1B6890881BB11A889C
:102A90005B88D31A1844704754A9FF1F38ABFF1F37
:102AA0000B4B1B789BB110B50A4C206848B1FFF75F
:102AB00087FF002303202360FFF782F830B1FFF780
:102AC0007FFF0320FFF77CF80028F8D110BD704786
:102AD0003CA9FF1F54A9FF1F2DE9F04FDFF8F89024
:102AE00083B0012289F80020019169B3DFF8EC80FE
:102AF000364F019E8346D8F80000B0B3344D448869
:102B0000C4F14001B14228BF314604EB010E00225E
:102B10001FFA8EFE2A70761AA0F802E000F1080271
:102B200051B1013C224459441BF8014B02F8014FBA
:102B30008B45F9D1B0F802E0BEF13F0F0BD8254A22
:102B400005211170002ED6D10198002389F800309C
:102B500003B0BDE8F08F4022028001460420FFF759
:102B6000F7F80022C8F80020E9E73A782AB3184DB0
:102B700048F601444FF0010A07E0013C16D02A78DC
:102B8000A2B900F0ADF83A78BAB10420FFF736F8F0
:102B90000728F2D889F800A0FFF7F2FEC8F8000075
:102BA0000028ACD10C4B013C1870E8D101234FF048
:102BB000FF302B7003B0BDE8F08F00234FF0FF30E3
:102BC00089F8003003B0BDE8F08F00BF3CA9FF1FBB
:102BD00050A9FF1F48A9FF1F49A9FF1F4CA9FF1FAC
:102BE00000B583B002AB012103F8010D1846FFF7D1
:102BF00073FF03B05DF804FB38B50E4D0E4C28682A
:102C00000123237028B1408800232370C0F14000C5
:102C100038BD0A4B1B7813B90020207038BD042042
:102C2000FEF7ECFF0728F7D8FFF7AAFE2860002878
:102C3000E9D1F1E74CA9FF1F49A9FF1F3CA9FF1FDC
:102C4000F8B5114B1B788BB1104E114D346801272C
:102C50002F7064B10F4A63880027177021462380C4
:102C60000420FFF775F8376000232B70F8BDFFF7DD
:102C700087FE084B28B1014604201C70FFF768F856
:102C8000F2E71F70F0E700BF3CA9FF1F4CA9FF1F30
:102C900049A9FF1F48A9FF1F38B50E4B1B7873B910
:102CA0000D4C216861B103F0FF054B880B800420B7
:102CB000FFF74EF8256038BD084B01221A7038BD69
:102CC000FFF75EFE0028F7D00146BDE8384004203B
:102CD000FFF73EB849A9FF1F4CA9FF1F48A9FF1FD6
:102CE00038B5224C237803B138BD01232370FFF798
:102CF000C9FE70BB00F040F940BB00F0D3F910BB37
:102D000000F066FAE0B900232370EFF30583002B8F
:102D1000EAD1EFF3108172B6154B1868E0B1154C8B
:102D20002278CAB945691D6001232370C5B1AA6123
:102D300001B962B600254577836898472570D3E7C7
:102D400000F018F9DFE700F013F9D9E700F00EF909
:102D5000D3E7FFF713FECDE70029C5D162B638BD32
:102D6000054B1D600029E5D1E3E700BF59A9FF1F0E
:102D70006CA9FF1F70A9FF1F68A9FF1F10B4EFF314
:102D8000108272B6437F33B9017F012907D003292E
:102D90000FD00123437702B962B610BC7047124CC2
:102DA0002168A1B1114943610B68836108605861D2
:102DB000EFE70F4C216881B10E4943610B688361D5
:102DC000086058610C4B4FF080511960E1E7074BE8
:102DD0004161816120601860DBE7064B41618161E0
:102DE00020601860EEE700BF6CA9FF1F68A9FF1FF5
:102DF0005CA9FF1F60A9FF1F04ED00E010B4047F71
:102E00004160022CC26002D010BCFFF7B7BF8368DC
:102E100010BC184770B5EFF3108272B60C4C2068E6
:102E200080B10C4E00254369236073B19D6102B9E6
:102E300062B6457783689847EFF3108272B62068D0
:102E40000028F0D102B962B670BD3360EFE700BF71
:102E50005CA9FF1F60A9FF1FFFF7DCBF184A30B451
:102E60001468002C27D0036821688B420ED2CB1A3D
:102E700000218460C1602360E0601060022303755C
:102E800030BC704711688B42144608D3A2685B1AA5
:102E90000360002AF6D18260C460A060EEE7D268C9
:102EA000C2608460E060C568CB1A0222A86023601B
:102EB000027530BC70478460C4601060DEE700BFFC
:102EC00064A9FF1FF8B5224E34682CB32368002B89
:102ED0003AD1204F1D4604E03468ECB12368002B42
:102EE00032D1A36803B1DD602069336003682575C2
:102EF0001B68BB4221D1037F4560022BC46020D0F8
:102F0000FFF73CFF6368002BE6D023602046FFF705
:102F1000A5FF3468002CE1D1EFF3108372B60E4A9E
:102F200000211068116003B962B628B18468FFF708
:102F300095FF20460028F9D1F8BD22460021984788
:102F4000E0E783689847DDE7013B2360E4E700BFE3
:102F500064A9FF1FFD2D000074A9FF1F024A13681A
:102F600001331360FFF7AEBF28A8FF1F704700BFF3
:102F7000704700BF704700BF054A064B10781B78AA
:102F8000C0B2DBB2984238BF4030C01A704700BFB1
:102F90007CA9FF1F7DA9FF1FF0B4384B1A7912F0EE
:102FA000300F2CD072B6997D01F0FF0200293DD080
:102FB00062B6334F334938780D78334E1C46C0B271
:102FC000EDB2431C402BE17928BF0023AB4202F154
:102FD000FF32C9B21CBFF154184612F0FF02F0D103
:102FE0002A4B1B68C2B23A704BB1A84236BFC5F13A
:102FF0004005401B40192728C4BF01221A701F49F1
:10300000CA78D2B2150616D452060DD51B4B1B79C1
:103010005B0609D51E4B1F491B6800220A7003B1CD
:103020001A70164B3C22DA70F0BC70474022D979F6
:103030005A7462B6E3E70B791C06E5D5164B174EBA
:103040001C783378E4B2DBB29C420ED0144D01E020
:10305000A3420AD00133402B28BF00230879E85C43
:10306000C0B2C871087D0728F2D9DBB203493370BA
:103070000B79180644BF7C23CB70C5E700A006403F
:103080007CA9FF1F7DA9FF1FC0A9FF1F78A9FF1FF3
:1030900004AAFF1F00AAFF1F08AAFF1F01AAFF1F03
:1030A00080A9FF1F054A064B10781B78C0B2DBB21F
:1030B000984238BF4030C01A704700BF7CAAFF1F3B
:1030C00011AAFF1FF0B4384B1A7912F0300F2CD030
:1030D00072B6997D01F0FF0200293DD062B6334FF0
:1030E000334938780D78334E1C46C0B2EDB2431CDC
:1030F000402BE17928BF0023AB4202F1FF32C9B275
:103100001CBFF154184612F0FF02F0D12A4B1B6885
:10311000C2B23A704BB1A84236BFC5F14005401B60
:1031200040192728C4BF01221A701F49CA78D2B299
:10313000150616D452060DD51B4B1B795B0609D517
:103140001E4B1F491B6800220A7003B11A70164BF0
:103150003C22DA70F0BC70474022D9795A7462B6CA
:10316000E3E70B791C06E5D5164B174E1C78337830
:10317000E4B2DBB29C420ED0144D01E0A3420AD06F
:103180000133282B28BF00230879E85CC0B2C8713E
:10319000087D0728F2D9DBB2034933700B79180692
:1031A00044BF7C23CB70C5E700B006407CAAFF1F5C
:1031B00011AAFF1F3CAAFF1F0CAAFF1F80AAFF1F16
:1031C00010AAFF1F84AAFF1F7DAAFF1F14AAFF1FBA
:1031D000054A064B10781B78C0B2DBB2984238BF64
:1031E0004030C01A704700BF8CAAFF1F8DAAFF1F76
:1031F00030B42B4B1A7994061FD52A48DA79037814
:10320000294901333F2B0978C8BF00238B42D2B232
:1032100003D0264CD9B2E2540170254A116861B13D
:10322000244A1278D2B2934236BFC2F140029B1AAE
:103230009B18272BC4BF01230B70194AD378DBB22C
:10324000180611D45A060DD5154B1B795B0609D506
:10325000194B1A491B6800220A7003B11A70104BEF
:103260002C22DA7030BC704711790906EAD514496E
:1032700010480C780178C9B28C420DD04A1C272A1C
:1032800084BF00210A460F4D054C98BFD1B2AA5CFD
:10329000D2B2E2710170D5E76C21D170D2E700BFE4
:1032A00000C006408CAAFF1F8DAAFF1FB8AAFF1FEF
:1032B00088AAFF1FF9AAFF1FFCAAFF1FF8AAFF1F79
:1032C00000ABFF1F90AAFF1F70B584B072B6194BF8
:1032D000194D1A48702241260F2480211A702E7031
:1032E0001A460470197013781B06FCD5144B186825
:1032F00062B6144B144C984298BF00EB800001A9B1
:1033000098BF40000A22FEF763FB01A92046002374
:1033100011F8012B01333AB10A2B20F8022FF7D113
:103320001623237004B070BD5B00DBB2237004B0C1
:1033300070BD00BF000002400700024006000240CE
:10334000080002407F969800949EFF1F0B4601469E
:10335000184601F057BD00BF2DE9F0438BB004467D
:103360000D4600F0C9F8374B93F90080B8F1FF3FE4
:1033700006460F460ED022462B462046294600F030
:10338000EDFF814630B9002200232046294600F097
:10339000C7FF20B9304639460BB0BDE8F0832A4B51
:1033A000CDF82090CDE90245CDE9044501932046B2
:1033B0002946B8F1000F17D1244D4FF06044002288
:1033C0000023CDE9064500F097FF002832D0022304
:1033D0000093684600F072F998B1089BB3B9DDE933
:1033E00006010BB0BDE8F083194D00240022002334
:1033F000CDE9064500F080FF68B1022398450093AF
:10340000E7D101F005FD22230360E6E701F000FDAE
:10341000089B0360E3E70123B8F1020F00930BD18F
:1034200001F0F6FC212303600A4800F049F9CDE9D8
:103430000601D2E701230093684600F03FF9002817
:10344000F2D1EDE7AA9EFF1FD45A0000FFFFEFC79D
:103450000000F0FFDC5A0000F0B58BB0054600F02C
:10346000D9F8224B93F90060731C04460AD0294610
:10347000284601F0CDFA074620B90021284601F080
:103480009FFA10B920460BB0F0BD194B08970122E6
:1034900028468DE80C0000F073FC0022CDE9040101
:1034A000CDE9020100239EB11046194600F0E6FD69
:1034B000022ECDE906010DD101F0AAFC2123036003
:1034C000089B6BB9DDE9060100F07EFF0BB0F0BD93
:1034D000CDE90623684600F0F1F80028F0D1EBE7CB
:1034E00001F096FC089B0360ECE700BFAA9EFF1F5B
:1034F000E05A0000FFFFFFFFB1F5801F2DE9F84300
:1035000004460D460B461ADA024621F000463243C5
:1035100059D000295FDB00223B4B00F085FC0B46B5
:103520000D463A498B4204466FF035020CDD2246C7
:103530002B462046294600F0C5FABDE8F8833349FA
:103540008B424FF00002F2DC1815A0F2FF3010445D
:103550004FEAD0794844C3F3130800F0FFFBC9F5E4
:103560007F73033348EA035506460F462046294633
:1035700000F0AEF81EA3D3E900238046894630460A
:10358000394600F051FC1CA3D3E9002304460D4644
:103590004046494600F048FC02460B462046294674
:1035A00000F090FA16A3D3E9002304460D463046F6
:1035B000394600F039FC02460B462046294600F009
:1035C00081FABDE8F883002200230020104900F0B2
:1035D00055FDBDE8F88302460B4600F071FA002263
:1035E000002300F04BFDBDE8F88300BFAFF300807F
:1035F000362BF111F3FE593D0EE526157BCBDB3F53
:1036000000609F501344D33F00005043FFFFEF7F03
:10361000000050C320F00042B2F1FF4F70B50446E5
:103620002ED262B3002803463DDBB2F5000F4FEA0D
:10363000E0502CD37F38C3F31603C20743F40003D2
:1036400048BF5B00002640105B00314619244FF054
:1036500080728D189D4202DC5B1BA9181644013C48
:103660004FEA43034FEA5202F3D113B106F00103CC
:103670001E44761006F17C5606EBC05070BD70BD3E
:10368000014600F0FFFF214600F0F4FE70BD14F487
:10369000000201D00EE00A465B001C0202F10101AB
:1036A000F9D5801AC6E7014600F0E2FE014601F0B6
:1036B0009DF870BD4FF0FF32F3E700BF0020704768
:1036C00000200149704700BF0000F87FFFFFFFFFA7
:1036D0002DE9F04FB1F5801F85B006460F460B4629
:1036E0005ADA024621F00044224300F0F880002913
:1036F000C0F27A810022D64B00F096FB0B460F46B3
:10370000D4498B4206466FF035024ADCC3F31305F9
:1037100005F5152404F6647404F4801E8EF07F51C0
:1037200081F440111B15A3F2FF3341EA05079C18F1
:1037300030460022C84B394604EB1E5400F0C0F955
:10374000AB1CC3F31303022B82468B464FF00002DF
:1037500030DC002300F0D0FD002800F0C980002CF0
:1037600000F04B81204600F0F9FAA5A3D3E900232D
:1037700006460F4600F058FBA3A3D3E900230446F6
:103780000D463046394600F04FFB02460B462046B8
:10379000294600F097F90AE0AE498B424FF000024B
:1037A000B4DD32463B463046394600F08BF905B071
:1037B000BDE8F08F4FF0804300F084F902460B46DD
:1037C0005046594600F05AFC064620460F4600F087
:1037D000C5FA3246CDE900013B4630463946CDE9CF
:1037E000026700F021FB02460B468046894600F046
:1037F0001BFB87A3D3E9002306460F4600F014FB0A
:1038000085A3D3E9002300F05DF932463B4600F082
:103810000BFB83A3D3E9002300F054F932463B4667
:1038200000F002FB80A3D3E9002300F04BF94246ED
:103830004B4600F0F9FA7EA3D3E90023804689467F
:103840003046394600F0F0FA7BA3D3E9002300F0BC
:1038500039F932463B4600F0E7FA79A3D3E9002371
:1038600000F030F932463B4600F0DEFA0B460246E5
:103870004946404600F026F9A5F5C223C5F5D725EF
:10388000A3F27A4351351D43002D8046894656DD0B
:103890000022724B5046594600F0C6FA52465B462B
:1038A00000F0C2FA06460F46002C68D132463B466D
:1038B0004046494600F006F9DDE9022300F0B4FA7B
:1038C00002460B463046394600F0FAF802460B46EF
:1038D0005046594600F0F4F805B0BDE8F08F0022DC
:1038E000002300205E4900F0C9FB05B0BDE8F08F61
:1038F00055A3D3E900235046594600F095FA0246F5
:103900000B460020554900F0DBF8524606460F46AC
:103910005B465046594600F087FA02460B46304651
:10392000394600F081FA06460F46002C40F09A8096
:1039300002460B465046594600F0C2F837E7002CC5
:1039400000F0A4802EA3D3E90023DDE9000100F0FC
:103950006BFA42464B4604460D465046594600F027
:10396000AFF8DDE9022300F05FFA27A3D3E90023D3
:1039700006460F46DDE9000100F056FA21E020A3DB
:10398000D3E90023DDE9000100F04EFA32463B4660
:1039900004460D464046494600F094F8DDE902230E
:1039A00000F042FA18A3D3E9002380468946DDE9F6
:1039B000000100F039FA02460B464046494600F045
:1039C00081F802460B463046394600F079F85246F7
:1039D0005B4600F075F802460B462046294600F08B
:1039E0006FF805B0BDE8F08F02460B4600F068F8AE
:1039F0000022002300F042FBD9E600200021D6E699
:103A00000000E0FE422EE63F763C7935EF39EA3D94
:103A100044523EDF12F1C23FDE03CB966446C73FFD
:103A2000599322942449D23F935555555555E53F16
:103A30009FC678D0099AC33FAF788E1DC571CC3F21
:103A400004FA97999999D93F555555555555D53FEC
:103A500000005043FFFFEF7F0000F03F0000E03F19
:103A6000000050C3204600F079F90FA3D3E90023EA
:103A70008046894600F0D8F90DA3D3E90023044617
:103A80000D464046494600F0CFF99AE702460B46FC
:103A90005046594600F014F8DDE9022300F0C4F95D
:103AA00014E700BFAFF300800000E0FE422EE63FC7
:103AB000763C7935EF39EA3D81F0004102E000BF04
:103AC00083F0004330B54FEA41044FEA430594EADE
:103AD000050F08BF90EA020F1FBF54EA000C55EA19
:103AE000020C7FEA645C7FEA655C00F0E2804FEAEA
:103AF0005454D4EB5555B8BF6D420CDD2C4480EACC
:103B0000020281EA030382EA000083EA010180EAFB
:103B1000020281EA0303362D88BF30BD11F0004F49
:103B20004FEA01314FF4801C4CEA113102D040427F
:103B300061EB410113F0004F4FEA03334CEA1333BA
:103B400002D0524263EB430394EA050F00F0A780D2
:103B5000A4F10104D5F1200E0DDB02FA0EFC22FACD
:103B600005F2801841F1000103FA0EF2801843FAC1
:103B700005F359410EE0A5F120050EF1200E012AB2
:103B800003FA0EFC28BF4CF0020C43FA05F3C018F0
:103B900051EBE37101F0004507D54FF0000EDCF169
:103BA000000C7EEB00006EEB0101B1F5801F1BD312
:103BB000B1F5001F0CD349085FEA30004FEA3C0C16
:103BC00004F101044FEA445212F5800F80F09A800C
:103BD000BCF1004F08BF5FEA500C50F1000041EB10
:103BE000045141EA050130BD5FEA4C0C404141EB14
:103BF000010111F4801FA4F10104E9D191F0000F3B
:103C000004BF01460020B1FA81F308BF2033A3F1BD
:103C10000B03B3F120020CDA0C3208DD02F1140CB4
:103C2000C2F10C0201FA0CF021FA02F10CE002F1EF
:103C30001402D8BFC2F1200C01FA02F120FA0CFCE8
:103C4000DCBF41EA0C019040E41AA2BF01EB045131
:103C5000294330BD6FEA04041F3C1CDA0C340EDC2F
:103C600004F11404C4F1200220FA04F001FA02F372
:103C700040EA030021FA04F345EA030130BDC4F130
:103C80000C04C4F1200220FA02F001FA04F340EA25
:103C90000300294630BD21FA04F0294630BD94F0D6
:103CA000000F83F4801306BF81F480110134013DBD
:103CB0004EE77FEA645C18BF7FEA655C29D094EA2E
:103CC000050F08BF90EA020F05D054EA000C04BFAC
:103CD0001946104630BD91EA030F1EBF0021002097
:103CE00030BD5FEA545C05D14000494128BF41F036
:103CF000004130BD14F580043CBF01F5801130BD9A
:103D000001F0004545F0FE4141F470014FF0000024
:103D100030BD7FEA645C1ABF194610467FEA655CD5
:103D20001CBF0B46024650EA013406BF52EA033577
:103D300091EA030F41F4002130BD00BF90F0000F65
:103D400004BF0021704730B54FF4806404F13204A1
:103D50004FF000054FF0000150E700BF90F0000F5A
:103D600004BF0021704730B54FF4806404F1320481
:103D700010F0004548BF40424FF000013EE700BF51
:103D800042004FEAE2014FEA31014FEA02701FBFE1
:103D900012F07F4393F07F4F81F06051704792F0B3
:103DA000000F14BF93F07F4F704730B54FF460742D
:103DB00001F0004521F0004120E700BF50EA010278
:103DC00008BF704730B54FF000050AE050EA010225
:103DD00008BF704730B511F0004502D5404261EB95
:103DE00041014FF4806404F132045FEA915C3FF4D6
:103DF000DCAE4FF003025FEADC0C18BF03325FEA6F
:103E0000DC0C18BF033202EBDC02C2F1200300FA23
:103E100003FC20FA02F001FA03FE40EA0E0021FA48
:103E200002F11444C1E600BF70B54FF0FF0C4CF432
:103E3000E06C1CEA11541DBF1CEA135594EA0C0FE8
:103E400095EA0C0F00F0DEF82C4481EA030621EA23
:103E50004C5123EA4C5350EA013518BF52EA03355E
:103E600041F4801143F4801338D0A0FB02CE4FF010
:103E70000005E1FB02E506F00042E0FB03E54FF040
:103E80000006E1FB03569CF0000F18BF4EF0010E38
:103E9000A4F1FF04B6F5007F64F5407404D25FEA34
:103EA0004E0E6D4146EB060642EAC62141EA5551E7
:103EB0004FEAC52040EA5E504FEACE2EB4F1FD0C29
:103EC00088BFBCF5E06F1ED8BEF1004F08BF5FEAA7
:103ED000500E50F1000041EB045170BD06F0004659
:103EE00046EA010140EA020081EA0301B4EB5C0406
:103EF000C2BFD4EB0C0541EA045170BD41F48011FE
:103F00004FF0000E013C00F3AB8014F1360FDEBF22
:103F1000002001F0004170BDC4F10004203C35DAFE
:103F20000C341BDC04F11404C4F1200500FA05F381
:103F300020FA04F001FA05F240EA020001F0004222
:103F400021F0004110EBD37021FA04F642EB060198
:103F50005EEA430E08BF20EAD37070BDC4F10C04C2
:103F6000C4F1200500FA04F320FA05F001FA04F286
:103F700040EA020001F0004110EBD37041F1000172
:103F80005EEA430E08BF20EAD37070BDC4F120057D
:103F900000FA05F24EEA020E20FA04F301FA05F2E5
:103FA00043EA020321FA04F001F0004121FA04F28D
:103FB00020EA020000EBD3705EEA430E08BF20EA5D
:103FC000D37070BD94F0000F0FD101F00046400097
:103FD00041EB010111F4801F08BF013CF7D041EA19
:103FE000060195F0000F18BF704703F0004652001D
:103FF00043EB030313F4801F08BF013DF7D043EAEE
:104000000603704794EA0C0F0CEA135518BF95EAA3
:104010000C0F0CD050EA410618BF52EA4306D1D12A
:1040200081EA030101F000414FF0000070BD50EA49
:10403000410606BF1046194652EA430619D094EAD3
:104040000C0F02D150EA013613D195EA0C0F05D1BD
:1040500052EA03361CBF104619460AD181EA030111
:1040600001F0004141F0FE4141F470014FF00000C9
:1040700070BD41F0FE4141F4780170BD70B54FF064
:10408000FF0C4CF4E06C1CEA11541DBF1CEA1355E4
:1040900094EA0C0F95EA0C0F00F0A7F8A4EB0504C6
:1040A00081EA030E52EA03354FEA013100F08880BD
:1040B0004FEA03334FF0805545EA131343EA126386
:1040C0004FEA022245EA111545EA10654FEA00263B
:1040D0000EF000419D4208BF964244F1FD0404F5F4
:1040E000407402D25B084FEA3202B61A65EB030550
:1040F0005B084FEA32024FF480104FF4002CB6EB0D
:10410000020E75EB030E22BFB61A754640EA0C008C
:104110005B084FEA3202B6EB020E75EB030E22BFCC
:10412000B61A754640EA5C005B084FEA3202B6EB0D
:10413000020E75EB030E22BFB61A754640EA9C00CC
:104140005B084FEA3202B6EB020E75EB030E22BF9C
:10415000B61A754640EADC0055EA060E18D04FEA5A
:10416000051545EA16754FEA06164FEAC30343EAFA
:1041700052734FEAC2025FEA1C1CC0D111F4801FC7
:104180000BD141EA00014FF000004FF0004CB6E7C0
:1041900011F4801F04BF01430020B4F1FD0C88BF5F
:1041A000BCF5E06F3FF6AFAEB5EB030C04BFB6EB6A
:1041B000020C5FEA500C50F1000041EB045170BD5D
:1041C0000EF0004E4EEA113114EB5C04C2BFD4EB8A
:1041D0000C0541EA045170BD41F480114FF0000E0E
:1041E000013C90E645EA060E8DE60CEA135594EA8A
:1041F0000C0F08BF95EA0C0F3FF43BAF94EA0C0F8D
:104200000AD150EA01347FF434AF95EA0C0F7FF401
:1042100025AF104619462CE795EA0C0F06D152EA55
:1042200003353FF4FDAE1046194622E750EA410639
:1042300018BF52EA43067FF4C5AE50EA41047FF44A
:104240000DAF52EA43057FF4EBAE12E74FF0FF3CAF
:1042500006E000BF4FF0010C02E000BF4FF0010C80
:104260004DF804CD4FEA410C7FEA6C5C4FEA430CF9
:1042700018BF7FEA6C5C1BD001B050EA410C0CBF48
:1042800052EA430C91EA030F02BF90EA020F0020AA
:10429000704710F1000F91EA030F58BF994208BF11
:1042A00090422CBFD8176FEAE37040F001007047CE
:1042B0004FEA410C7FEA6C5C02D150EA013C07D125
:1042C0004FEA430C7FEA6C5CD6D152EA033CD3D070
:1042D0005DF8040B704700BF8446104662468C466A
:1042E0001946634600E000BF01B5FFF7B7FF00289D
:1042F00048BF10F1000F01BD4DF808EDFFF7F4FFC6
:104300000CBF012000205DF808FB00BF4DF808ED50
:10431000FFF7EAFF34BF012000205DF808FB00BF73
:104320004DF808EDFFF7E0FF94BF012000205DF895
:1043300008FB00BF4DF808EDFFF7CEFF94BF01204A
:1043400000205DF808FB00BF4DF808EDFFF7C4FF43
:1043500034BF012000205DF808FB00BF4FEA410C8C
:104360007FEA6C5C02D150EA013C0AD14FEA430C6F
:104370007FEA6C5C02D152EA033C02D14FF00000AC
:1043800070474FF0010070474A0011D212F5001239
:1043900011D20DD56FF47873B3EB62520ED44FEA9D
:1043A000C12343F0004343EA505323FA02F070471D
:1043B0004FF00000704750EA013002D14FF0FF305B
:1043C00070474FF0000070474FEA4102B2F1E043FE
:1043D00024BFB3F5001CDCF1FE5C0DD901F0004CEC
:1043E0004FEAC0024CEA5070B2F1004F40EB83003C
:1043F00008BF20F00100704711F0804F21D113F168
:104400003872BCBF01F00040704741F480114FEAA0
:104410005252C2F11802C2F1200C10FA0CF320FA29
:1044200002F018BF40F001004FEAC1234FEAD32346
:1044300003FA0CFC40EA0C0023FA02F34FEA4303B0
:10444000CCE77FEA625307D150EA01331EBF4FF039
:10445000FE4040F44000704701F0004040F0FE4054
:1044600040F40000704700BF80F0004002E000BF51
:1044700081F0004142001FBF5FEA410392EA030F4F
:104480007FEA226C7FEA236C6AD04FEA1262D2EB99
:104490001363C1BFD218414048404140B8BF5B429E
:1044A000192B88BF704710F0004F40F4000020F037
:1044B0007F4018BF404211F0004F41F4000121F04D
:1044C0007F4118BF494292EA030F3FD0A2F1010297
:1044D00041FA03FC10EB0C00C3F1200301FA03F1D5
:1044E00000F0004302D5494260EB4000B0F5000FF8
:1044F00013D3B0F1807F06D340084FEA310102F1B7
:104500000102FE2A51D2B1F1004F40EBC25008BF68
:1045100020F0010040EA03007047490040EB000032
:1045200010F4000FA2F10102EDD1B0FA80FCACF161
:10453000080CB2EB0C0200FA0CF0AABF00EBC25060
:1045400052421843BCBFD0401843704792F0000F4E
:1045500081F4000106BF80F400000132013BB5E7A1
:104560004FEA41037FEA226C18BF7FEA236C21D017
:1045700092EA030F04D092F0000F08BF084670477C
:1045800090EA010F1CBF0020704712F07F4F04D14A
:10459000400028BF40F00040704712F100723CBF5D
:1045A00000F50000704700F0004343F0FE4040F487
:1045B000000070477FEA226216BF08467FEA236345
:1045C0000146420206BF5FEA412390EA010F40F430
:1045D000800070474FF0000304E000BF10F000437C
:1045E00048BF40425FEA000C08BF704743F0964363
:1045F00001464FF000001CE050EA010208BF70477E
:104600004FF000030AE000BF50EA010208BF704704
:1046100011F0004302D5404261EB41015FEA010C19
:1046200002BF84460146002043F0B64308BFA3F111
:104630008053A3F50003BCFA8CF2083AA3EBC253F3
:1046400010DB01FA02FC634400FA02FCC2F1200212
:10465000BCF1004F20FA02F243EB020008BF20F049
:104660000100704702F1200201FA02FCC2F12002AF
:1046700050EA4C0021FA02F243EB020008BF20EAA4
:10468000DC7070474FF0FF0C1CEAD0521EBF1CEAD2
:10469000D15392EA0C0F93EA0C0F6FD01A4480EAC0
:1046A000010C400218BF5FEA41211ED04FF00063A9
:1046B00043EA501043EA5111A0FB01310CF00040D5
:1046C000B1F5000F3EBF490041EAD3715B0040EAFB
:1046D000010062F17F02FD2A1DD8B3F1004F40EBCB
:1046E000C25008BF20F00100704790F0000F0CF09E
:1046F000004C08BF49024CEA502040EA51207F3A62
:10470000C2BFD2F1FF0340EAC250704740F400003C
:104710004FF00003013A5DDC12F1190FDCBF00F02D
:1047200000407047C2F10002410021FA02F1C2F1DB
:10473000200200FA02FC5FEA310040F1000053EA77
:104740004C0308BF20EADC70704792F0000F00F0C5
:10475000004C02BF400010F4000F013AF9D040EACB
:104760000C0093F0000F01F0004C02BF490011F45F
:10477000000F013BF9D041EA0C018FE70CEAD1535D
:1047800092EA0C0F18BF93EA0C0F0AD030F0004CDD
:1047900018BF31F0004CD8D180EA010000F0004091
:1047A000704790F0000F17BF90F0004F084691F04F
:1047B000000F91F0004F14D092EA0C0F01D1420289
:1047C0000FD193EA0C0F03D14B0218BF084608D152
:1047D00080EA010000F0004040F0FE4040F400009C
:1047E000704740F0FE4040F4400070474FF0FF0C2F
:1047F0001CEAD0521EBF1CEAD15392EA0C0F93EA76
:104800000C0F69D0A2EB030280EA010C49024FEAC7
:10481000402037D04FF0805343EA111143EA101380
:104820000CF000408B4238BF5B0042F17D024FF438
:10483000000C8B4224BF5B1A40EA0C00B3EB510F13
:1048400024BFA3EB510340EA5C00B3EB910F24BFFC
:10485000A3EB910340EA9C00B3EBD10F24BFA3EB81
:10486000D10340EADC001B0118BF5FEA1C1CE0D149
:10487000FD2A3FF650AF8B4240EBC25008BF20F0FC
:10488000010070470CF0004C4CEA50207F32C2BF50
:10489000D2F1FF0340EAC250704740F400004FF0ED
:1048A0000003013A37E792F0000F00F0004C02BF1E
:1048B000400010F4000F013AF9D040EA0C0093F0E8
:1048C000000F01F0004C02BF490011F4000F013B42
:1048D000F9D041EA0C0195E70CEAD15392EA0C0FAA
:1048E00008D142027FF47DAF93EA0C0F7FF470AFE2
:1048F000084676E793EA0C0F04D14B023FF44CAF25
:1049000008466EE730F0004C18BF31F0004CCAD1B9
:1049100030F000427FF45CAF31F000437FF43CAFF5
:104920005FE700BF4FF0FF3C06E000BF4FF0010C17
:1049300002E000BF4FF0010C4DF804CD4FEA4002F9
:104940004FEA41037FEA226C18BF7FEA236C11D043
:1049500001B052EA530C18BF90EA010F58BFB2EBF6
:10496000030088BFC81738BF6FEAE17018BF40F076
:10497000010070477FEA226C02D15FEA402C05D12A
:104980007FEA236CE4D15FEA412CE1D05DF8040BAF
:10499000704700BF844608466146FFE70FB5FFF742
:1049A000C9FF002848BF10F1000F0FBD4DF808EDFA
:1049B000FFF7F4FF0CBF012000205DF808FB00BFEB
:1049C0004DF808EDFFF7EAFF34BF012000205DF845
:1049D00008FB00BF4DF808EDFFF7E0FF94BF012092
:1049E00000205DF808FB00BF4DF808EDFFF7D2FF8F
:1049F00094BF012000205DF808FB00BF4DF808EDD2
:104A0000FFF7C8FF34BF012000205DF808FB00BF9E
:104A10004FEA40024FEA41037FEA226C02D15FEA8B
:104A2000402C08D17FEA236C02D15FEA412C02D1ED
:104A30004FF0000070474FF00100704742000ED267
:104A4000B2F1FE4F0BD34FF09E03B3EB126209D4C9
:104A50004FEA002343F0004323FA02F070474FF07F
:104A60000000704712F1610F01D1420202D14FF0F4
:104A7000FF3070474FF00000704700BF7BB972B93C
:104A80000029BEBF00204FF0004106E008BF00280B
:104A90001CBF6FF000414FF0FF3000F0B1B9ADF135
:104AA000080C6DE904CE002909DB002B1ADB00F0AD
:104AB00035F8DDF804E0DDE9022304B07047404238
:104AC00061EB4101002B1BDB00F028F8DDF804E06E
:104AD000DDE9022304B0404261EB4101524263EB45
:104AE00043037047524263EB430300F017F8DDF8CD
:104AF00004E0DDE9022304B0404261EB410170476C
:104B0000524263EB430300F009F8DDF804E0DDE90D
:104B1000022304B0524263EB430370472DE9F04790
:104B20008C460E460446089D002B50D18A421746FB
:104B30006CD9B2FA82FEBEF1000F0BD0CEF1200488
:104B400020FA04F401FA0EF644EA060C02FA0EF713
:104B500000FA0EF44FEA1749220CBCFBF9F01FFAD9
:104B600087F809FB10C642EA064600FB08F3B34289
:104B700009D9F61900F1FF3280F02281B34240F2E8
:104B80001F8102383E44F61AA2B2B6FBF9F309FBC4
:104B9000136642EA064403FB08F8A04509D9E41964
:104BA00003F1FF3280F00A81A04540F20781023B09
:104BB0003C44C8EB040443EA00400021002D62D0CD
:104BC00024FA0EF400232C606B60BDE8F0878B4262
:104BD00007D9002D55D0002185E841000846BDE8E1
:104BE000F087B3FA83F1002940F09080B34202D3FA
:104BF000824200F2F880841A66EB03060120B44674
:104C0000002D40D085E81010BDE8F08712B90127CB
:104C1000B7FBF2F7B7FA87FEBEF1000F35D1F31BF1
:104C20004FEA17481FFA87FC0121B3FBF8F0220C6A
:104C300008FB103642EA06460CFB00F3B34207D9E4
:104C4000F61900F1FF3202D2B34200F2CE801046D4
:104C5000F61AA2B2B6FBF8F308FB136642EA064462
:104C60000CFB03FCA44507D9E41903F1FF3202D27F
:104C7000A44500F2B5801346CCEB040443EA00409F
:104C80009CE729462846BDE8F087CEF1200106FAC8
:104C90000EF307FA0EF720FA01F94FEA1748CE4053
:104CA00049EA0309B6FBF8FA4FEA194408FB1A6609
:104CB0001FFA87FC44EA06430AFB0CF29A4200FA08
:104CC0000EF40AD9DB190AF1FF3180F087809A428D
:104CD00040F28480AAF1020A3B449B1A1FFA89F928
:104CE000B3FBF8F108FB113349EA034301FB0CF66F
:104CF0009E4207D9DB1901F1FF326BD29E4269D97E
:104D000002393B449B1B41EA0A418EE7C1F1200E68
:104D100022FA0EF48B40234320FA0EF706FA01F430
:104D20004FEA134C26FA0EF63C43B6FBFCF9270C6F
:104D30000CFB19661FFA83F847EA064609FB08F7D9
:104D4000B74202FA01F200FA01FA08D9F61809F19D
:104D5000FF3041D2B7423FD9A9F102091E44F61BE8
:104D6000A0B2B6FBFCF40CFB146640EA064704FB59
:104D700008F8B84507D9FF1804F1FF3028D2B84524
:104D800026D9023C1F4444EA0940C8EB0707A0FBB0
:104D900002894F4544464E4614D329D065B3BAEB39
:104DA000040367EB060707FA0EFECB40CF404EEA3E
:104DB000030385E888000021BDE8F0871346F8E684
:104DC0001046E0E6B8EB020469EB03060138E5E7BC
:104DD0000446D8E7114695E78146C0E78A467CE756
:104DE000023B3C4448E708460AE702383E442FE7C6
:104DF000C245E7D33E46D1E72946BDE8F08700BF6C
:104E0000704700BF13460A460146022000F004BB6B
:104E1000014B1868704700BFD8A2FF1F70B50F4E36
:104E20000F4D761BB61018BF002405D0013455F87D
:104E3000043B9847A642F9D10A4E0B4D761B00F071
:104E400055FEB61018BF002406D0013455F8043BB7
:104E50009847A642F9D170BD70BD00BFF85A000056
:104E6000F85A00000C5B0000F85A0000024B0146A3
:104E7000186800F003B800BFD8A2FF1F2DE9F04F5B
:104E800001F10B05162D83B0064640F29F8035F0E8
:104E9000070500F1BF80A94200F2BC8000F0A6FA2D
:104EA000B5F5FC7FC0F09C826B0A00F0BA80042B41
:104EB00000F28381A80900F1390E4FEA4E03383021
:104EC000C44F07EB8303A3F108015C68A14207D13B
:104ED000ACE0002A80F2AC80E468A14200F0A68039
:104EE000636823F003035A1B0F2AF2DDB9493C69BA
:104EF00001F1080E744500F0B381636823F00303E9
:104F00005A1B0F2A00F39981002AC1F814E0C1F856
:104F100010E080F29E80B3F5007F80F06781DB08AF
:104F200003F1010C01229B1002FA03F34A6851F8C5
:104F30003C80C4F8088001EBCC091A43A9F10803AE
:104F4000E3604A6041F83C40C8F80C4083100124FB
:104F50009C40944200F28A80144206D120F0030063
:104F60006400144200F10400FAD007EBC009CC46FB
:104F70008046DCF80C108C4507D173E1002A80F2E2
:104F80008181C9688C4500F06D814B6823F0030373
:104F90005A1B0F2AF2DD0C46D1F80CC054F8088FCA
:104FA0004B1945F001054D6042F00101C8F80CC0F5
:104FB0003046CCF808807B613B61C3F80CE0C3F855
:104FC00008E059609A5000F013FA1FE0102921D828
:104FD00000F00CFA1025062302207E4F07EB830316
:104FE000A3F108025C68944200F045816368E168BF
:104FF000A56823F00303234430465A68E96042F071
:1050000001028D605A6000F0F3F90834204603B0C5
:10501000BDE8F08F00240C232046336003B0BDE8C8
:10502000F08F80234FF0400E3F2049E770465DE748
:105030002344E1685A68A56842F00102E9603046FD
:105040008D605A6000F0D4F90834204603B0BDE802
:10505000F08F234430465A6842F001025A6000F053
:10506000C7F90834204603B0BDE8F08FBC68636818
:1050700023F00308A84504D3C5EB08030F2B00F366
:105080008C80554BDFF860911A68D9F800300133F5
:105090002A4404EB080A00F0608102F580520F32C6
:1050A00022F47F6222F00F0211463046019200F096
:1050B000A1F9B0F1FF3F8346019A00F05881824583
:1050C00000F2FC80454B1968DA451144196000F084
:1050D0005381D9F80000DFF810E101301BBFCAEBA3
:1050E0000B0A5144CEF800B019601BF0070100F024
:1050F0001781C1F10800C1F58051834408315A4439
:10510000C2F30B02C2EB010949463046019300F09D
:1051100071F9431C019B00F03F81CBEB00024A4434
:1051200042F001021968C7F808B04944BC42CBF804
:1051300004201960DFF8A49016D0B8F10F0F40F2E8
:10514000FD806268A8F10C0323F00703E01802F069
:1051500001024FF0050E1A430F2B6260C0F804E005
:10516000C0F808E000F21C811D4BBC681A6891422F
:1051700088BF19601B4B1A689142626888BF19602A
:1051800022F003029542A2EB050301D80F2B04DCA9
:10519000304600F02DF9002438E7621943F001038E
:1051A00045F0010565603046BA60536000F020F9B3
:1051B0000834204603B0BDE8F08F142B71D9542B6E
:1051C00000F2A480280B00F16F0E4FEA4E036E3000
:1051D00076E600BFDCA2FF1F0CABFF1F10ABFF1F6A
:1051E00008ABFF1F04ABFF1FE8A6FF1F5A0A042AE3
:1051F0005ED9142A00F2B38002F15C0149005B32EF
:1052000007EB810C57F82110DFF8DC81ACF1080CBA
:105210008C4500F088804A6822F00302934202D253
:1052200089688C45F7D1D1F80CC07A68C4F80CC0F5
:10523000A160CCF80840CC6088E6631942F0010711
:1052400045F00105656030464B610B61C3F80CE029
:10525000C3F808E05F609A50083400F0C9F8D5E65A
:105260004A6873E608F1010818F0030F0CF1080C06
:105270007FF47FAE30E0DC68A34208BF02303FF429
:1052800035AEB3E60B440C465A68C96854F8085F5B
:1052900042F001025A603046E9608D6000F0A8F8E3
:1052A000B4E603F15C0E03F15B004FEA4E0307E640
:1052B0009A0902F1390149003832A1E7BC424A4B50
:1052C0003FF400AF9C68626822F003025AE759F885
:1052D0000839994540F0828010F0030F00F1FF304B
:1052E000F5D17B6823EA04037B6064009C423FF6AF
:1052F000BDAE002C3FF4BAAE1C4240467FF435AE42
:1053000064001C4200F10400FAD02EE6B3F5AA7F37
:1053100018D8E80B00F1780E4FEA4E037730CFE54E
:105320004FF48051EBE60121D8F80430921001FAD5
:1053300002F21A43C8F80420614677E70123CBF84C
:10534000043025E740F25452934220D8A80C00F1D3
:105350007D0E4FEA4E037C30B2E51032A4E6542AAB
:1053600026D81A0B02F16F0149006E3248E7BC687B
:10537000626822F0030205E7CAF30B0000287FF4FD
:10538000A8AE4244BB6842F001025A60ECE6FE233C
:105390004FF07F0E7E2093E501224FF00009C1E619
:1053A00004F10801304600F0FBF8D9F80010DBE604
:1053B000B2F5AA7F05D8DA0B02F1780149007732FD
:1053C0001EE740F254518A4205D89A0C02F17D0141
:1053D00049007C3214E7FE217E2211E77B6884E7D6
:1053E000E808431C5B00F8E5DCA2FF1F704700BF24
:1053F000704700BF38B5074C0023054608462360B8
:10540000FCF7CEFA431C00D038BD2368002BFBD03C
:105410002B6038BD54ABFF1F2DE9F047254C2568A4
:10542000D5F848410646884692469946C4B3606816
:105430001F2817DC431C76B104EB80050122C5F858
:1054400088A0D4F8881182401143022EC4F8881134
:10545000C5F808911ED00230636044F82080002017
:10546000BDE8F087144B03B34FF4C870FFF7FEFCA0
:105470000446D0B1D5F84831002780E88800C5F847
:10548000484138460123C4F88871C4F88C71002E55
:10549000E1D0D1E7D4F88C110A43C4F88C21DAE7C3
:1054A00005F5A674C5F84841C1E74FF0FF30BDE8E7
:1054B000F08700BFE85A00006D4E0000024B13B1A8
:1054C000024800F005B8704700000000DD540000FD
:1054D000002301461A461846FFF79EBF38B5074D10
:1054E000074C2C1BA41005D0013C55F8043D9847EF
:1054F000002CF9D1BDE8384000F008BB00000000E6
:1055000000000000F8B5234F0C460646FFF76EFF7B
:10551000BB685D6825F00305291B01F6EF7121F4D6
:105520007F6121F00F01A1F58054B4F5805F07DBA6
:1055300000213046FFF75EFFBB682B44984204D041
:105540003046FFF755FF0020F8BD61423046FFF7B7
:1055500051FF01300DD0104BBA6819682D1B45F072
:1055600001053046091B55601960FFF741FF012016
:10557000F8BD00213046FFF73DFFBA68831A0F2BB4
:10558000DEDD064C0449246843F00103001B536030
:105590000860D5E7DCA2FF1F10ABFF1FE8A6FF1FC6
:1055A000002945D02DE9F0410D468046FFF71EFF4A
:1055B00055F8047C6A4927F00103A5F10804E218B4
:1055C0008E685068B24220F0030062D0FE0750603F
:1055D0000BD455F8087CE41B01F1080EA56875454D
:1055E0003B446FD0E768EF60BD6015186D68ED074C
:1055F00042D543F001026260E350B3F5007F18D258
:10560000DB085A1C4D6851F83270A76001209B10CE
:1056100000FA03F301EBC2001D430838E0604D605F
:1056200041F83240FC604046BDE8F041FFF7E0BE83
:1056300070475A0A042A53D89A0902F139077F00A1
:1056400002F1380501EB870051F82720444908385A
:1056500090424DD0516821F003018B4202D29268F2
:105660009042F7D1D068E060A2608460D460404688
:10567000BDE8F041FFF7BCBE95683A4FBD42034418
:105680003FD0D068E86043F0010285606260E3507B
:10569000B3E7FF07034407D455F8082CA41A1344B2
:1056A000A068E268C26090602F4A126843F001006F
:1056B000934260608C60B6D32C4B40461968FFF76C
:1056C00021FFB0E711184968C90744D49168D2682E
:1056D000CA60034443F0010091606060E350A2E7B8
:1056E000142A17D802F15C077F0002F15B05A9E7D5
:1056F000AA104B68012505FA02F213434B600246DB
:10570000B1E743F001024C610C61E560A5606260A5
:10571000E35088E7542A06D81A0B02F16F077F007E
:1057200002F16E058EE7B2F5AA7F06D8DA0B02F118
:1057300078077F0002F1770584E740F254508242F7
:1057400006D89A0C02F17D077F0002F17C0579E70B
:10575000FE277E2576E743F001026260E35062E7B0
:10576000DCA2FF1FE4A2FF1FE4A6FF1F0CABFF1F7C
:105770000000000000000000CD1900002C00FFFF19
:1057800000000000000000006508000000000000AC
:10579000000000007109000000000000000000008F
:1057A000A50B00000000000000000000CD0D00006F
:1057B0000000240348066A098C0CAB0FC812E215DE
:1057C000F9180B1C1A1F2322282526281F2B112EFF
:1057D000FB30DF33BA368C39563C173FCE417A4422
:1057E0001C47B4493F4CBF4E33519B53F55542586B
:1057F000825AB35CD75EEB60F162E864CF66A6685C
:105800006D6A236CC96D5E6FE2705472B573047576
:1058100041766B77847889797C7A5C7B297CE37C20
:10582000897D1D7E9C7E097F617FA67FD87FF57F65
:10583000FF7FF57FD87FA67F617F097F9C7E1D7EDD
:10584000897DE37C297C5C7B7C7A897984786B77A1
:1058500041760475B5735472E2705E6FC96D236C46
:105860006D6AA668CF66E864F162EB60D75EB35CF0
:10587000825A4258F5559B533351BF4E3F4CB44961
:105880001C477A44CE41173F563C8C39BA36DF3339
:10589000FB30112E1F2B2628282523221A1F0B1C14
:1058A000F918E215C812AB0F8C0C6A0948062403DC
:1058B0000000DCFCB8F996F674F355F038ED1EEAFA
:1058C00007E7F5E3E6E0DDDDD8DADAD7E1D4EFD1BA
:1058D00005CF21CC46C974C6AAC3E9C032BE86BB77
:1058E000E4B84CB6C1B341B1CDAE65AC0BAABEA70E
:1058F0007EA54DA329A1159F0F9D189B31995A97FD
:105900009395DD933792A2901E8FAC8D4B8CFC8AC1
:10591000BF8995887C8777868485A484D7831D83F7
:105920007782E3816481F7809F805A8028800B8092
:1059300001800B8028805A809F80F7806481E381FA
:1059400077821D83D783A484848577867C87958816
:10595000BF89FC8A4B8CAC8D1E8FA2903792DD9351
:1059600093955A973199189B0F9D159F29A14DA387
:105970007EA5BEA70BAA65ACCDAE41B1C1B34CB6F6
:10598000E4B886BB32BEE9C0AAC374C646C921CCFE
:1059900005CFEFD1E1D4DAD7D8DADDDDE6E0F5E303
:1059A00007E71EEA38ED55F074F396F6B8F9DCFC1B
:1059B0000000FFFF0D0AFFFF6E616E006F7666004C
:1059C000696E6600050E08090D0C06070F0400132A
:1059D0000393050E08090D0C06070F04FFFFC5858C
:1059E000848687C4FFFF001303931A9217FFFFFFFB
:1059F0000000000000000000752900006D29000073
:105A00006929000065290000612900005D29000066
:105A1000592900005529000015151915151515FFF0
:105A200000010000B49CFF1F1200000000020000F3
:105A3000E09CFF1FAF00000000220200909DFF1FAE
:105A40003F00000000210200349DFF1F09000000FC
:105A500000220300609CFF1F54000000002103008F
:105A60004D9DFF1F0900000000220400D09DFF1F74
:105A70005500000000210400669DFF1F0900000082
:105A800000220500289EFF1F2800000000210500BD
:105A90007F9DFF1F0900000000030000909EFF1F74
:105AA0000000000001030904C89CFF1F0000000063
:105AB00002030904509EFF1F0000000003030904B5
:105AC000949EFF1F00000000000000000000000086
:105AD000000000006C6F67313000000000FFFFFF26
